:020000020000FC
:0200000020C01E
:10004000B0C002E005BD01E000936E007894002787
:1000500006BD0FEF0AB90CEF07B90FEF04B901E0C5
:10006000009389000FEF0093880002E8009380005E
:100070000AE1009381000CE9009387000FE30093ED
:1000800086000E944C000E9477000E9459000E9446
:1000900068000E949100F9CF07E610E01093C500B8
:1000A0000093C40008E00093C1000EE00093C2007A
:1000B000089500917C00007C006000937C000E9409
:1000C0007E000E948500E0917800F091790008950B
:1000D00000917C00007C016000937C000E947E0007
:1000E0000E948500C0917800D0917900089517EEA4
:1000F00010937A0000EC00937C00089500E40093D4
:100100007A00012B00937A00089510917A0014FF71
:100110000C94850000E110917A00102B10937A0066
:100120000895EC17FD0788F053E040E23FE02FE927
:10013000420F531F4093880050938900A8E40E9407
:10014000B6000E94C3000C94450053E040E237E043
:100150002FEC241B350B4093880050938900ACE4AE
:100160000E94B6000E94C3000C94450005D0ADE08B
:1001700003D0AAE001D008950091C00005FFFCCF94
:10018000A093C600089588278E31F1F7089584E67C
:1001900072E36A95F1F77A95E1F78A95D1F7000055
:0C01A000089583958D3309F48827189585
:00000001FF
